{
  "_format": "hh-sol-artifact-1",
  "contractName": "Marketplace",
  "sourceName": "src/backend/contracts/Marketplace.sol",
  "abi": [
    {
      "inputs": [
        {
          "internalType": "uint256",
          "name": "_feePercent",
          "type": "uint256"
        }
      ],
      "stateMutability": "nonpayable",
      "type": "constructor"
    },
    {
      "anonymous": false,
      "inputs": [
        {
          "indexed": false,
          "internalType": "uint256",
          "name": "itemId",
          "type": "uint256"
        },
        {
          "indexed": true,
          "internalType": "address",
          "name": "nft",
          "type": "address"
        },
        {
          "indexed": false,
          "internalType": "uint256",
          "name": "tokenId",
          "type": "uint256"
        },
        {
          "indexed": false,
          "internalType": "uint256",
          "name": "price",
          "type": "uint256"
        },
        {
          "indexed": true,
          "internalType": "address",
          "name": "seller",
          "type": "address"
        },
        {
          "indexed": true,
          "internalType": "address",
          "name": "buyer",
          "type": "address"
        }
      ],
      "name": "Bought",
      "type": "event"
    },
    {
      "anonymous": false,
      "inputs": [
        {
          "indexed": false,
          "internalType": "address",
          "name": "Id",
          "type": "address"
        },
        {
          "indexed": false,
          "internalType": "string",
          "name": "name",
          "type": "string"
        },
        {
          "indexed": false,
          "internalType": "string",
          "name": "govtId",
          "type": "string"
        },
        {
          "indexed": false,
          "internalType": "string",
          "name": "location",
          "type": "string"
        },
        {
          "indexed": false,
          "internalType": "string",
          "name": "landarea",
          "type": "string"
        },
        {
          "indexed": false,
          "internalType": "string",
          "name": "contact",
          "type": "string"
        },
        {
          "indexed": false,
          "internalType": "string",
          "name": "iotid",
          "type": "string"
        }
      ],
      "name": "FarmerAdded",
      "type": "event"
    },
    {
      "anonymous": false,
      "inputs": [
        {
          "indexed": false,
          "internalType": "uint256",
          "name": "itemId",
          "type": "uint256"
        },
        {
          "indexed": true,
          "internalType": "address",
          "name": "nft",
          "type": "address"
        },
        {
          "indexed": false,
          "internalType": "uint256",
          "name": "tokenId",
          "type": "uint256"
        },
        {
          "indexed": false,
          "internalType": "uint256",
          "name": "price",
          "type": "uint256"
        },
        {
          "indexed": true,
          "internalType": "address",
          "name": "seller",
          "type": "address"
        }
      ],
      "name": "Offered",
      "type": "event"
    },
    {
      "inputs": [
        {
          "internalType": "address",
          "name": "_id",
          "type": "address"
        },
        {
          "internalType": "string",
          "name": "_name",
          "type": "string"
        },
        {
          "internalType": "string",
          "name": "_govtId",
          "type": "string"
        },
        {
          "internalType": "string",
          "name": "_location",
          "type": "string"
        },
        {
          "internalType": "string",
          "name": "_area",
          "type": "string"
        },
        {
          "internalType": "string",
          "name": "_contact",
          "type": "string"
        },
        {
          "internalType": "string",
          "name": "_iotid",
          "type": "string"
        }
      ],
      "name": "create_Farmer",
      "outputs": [],
      "stateMutability": "nonpayable",
      "type": "function"
    },
    {
      "inputs": [
        {
          "internalType": "address",
          "name": "",
          "type": "address"
        }
      ],
      "name": "farmers",
      "outputs": [
        {
          "internalType": "address",
          "name": "Id",
          "type": "address"
        },
        {
          "internalType": "string",
          "name": "name",
          "type": "string"
        },
        {
          "internalType": "string",
          "name": "govtId",
          "type": "string"
        },
        {
          "internalType": "string",
          "name": "location",
          "type": "string"
        },
        {
          "internalType": "string",
          "name": "landarea",
          "type": "string"
        },
        {
          "internalType": "string",
          "name": "contact",
          "type": "string"
        },
        {
          "internalType": "string",
          "name": "iotid",
          "type": "string"
        }
      ],
      "stateMutability": "view",
      "type": "function"
    },
    {
      "inputs": [],
      "name": "feeAccount",
      "outputs": [
        {
          "internalType": "address payable",
          "name": "",
          "type": "address"
        }
      ],
      "stateMutability": "view",
      "type": "function"
    },
    {
      "inputs": [],
      "name": "feePercent",
      "outputs": [
        {
          "internalType": "uint256",
          "name": "",
          "type": "uint256"
        }
      ],
      "stateMutability": "view",
      "type": "function"
    },
    {
      "inputs": [
        {
          "internalType": "uint256",
          "name": "_itemId",
          "type": "uint256"
        }
      ],
      "name": "getTotalPrice",
      "outputs": [
        {
          "internalType": "uint256",
          "name": "",
          "type": "uint256"
        }
      ],
      "stateMutability": "view",
      "type": "function"
    },
    {
      "inputs": [],
      "name": "itemCount",
      "outputs": [
        {
          "internalType": "uint256",
          "name": "",
          "type": "uint256"
        }
      ],
      "stateMutability": "view",
      "type": "function"
    },
    {
      "inputs": [
        {
          "internalType": "uint256",
          "name": "",
          "type": "uint256"
        }
      ],
      "name": "items",
      "outputs": [
        {
          "internalType": "uint256",
          "name": "itemId",
          "type": "uint256"
        },
        {
          "internalType": "contract IERC721",
          "name": "nft",
          "type": "address"
        },
        {
          "internalType": "uint256",
          "name": "tokenId",
          "type": "uint256"
        },
        {
          "internalType": "uint256",
          "name": "price",
          "type": "uint256"
        },
        {
          "internalType": "address payable",
          "name": "seller",
          "type": "address"
        },
        {
          "internalType": "address",
          "name": "owner",
          "type": "address"
        },
        {
          "internalType": "bool",
          "name": "sold",
          "type": "bool"
        }
      ],
      "stateMutability": "view",
      "type": "function"
    },
    {
      "inputs": [
        {
          "internalType": "contract IERC721",
          "name": "_nft",
          "type": "address"
        },
        {
          "internalType": "uint256",
          "name": "_tokenId",
          "type": "uint256"
        },
        {
          "internalType": "uint256",
          "name": "_price",
          "type": "uint256"
        }
      ],
      "name": "makeItem",
      "outputs": [],
      "stateMutability": "nonpayable",
      "type": "function"
    },
    {
      "inputs": [
        {
          "internalType": "uint256",
          "name": "_itemId",
          "type": "uint256"
        }
      ],
      "name": "purchaseItem",
      "outputs": [],
      "stateMutability": "payable",
      "type": "function"
    }
  ],
  "bytecode": "0x60c06040523480156200001157600080fd5b5060405162001d3c38038062001d3c83398181016040528101906200003791906200009c565b60016000819055503373ffffffffffffffffffffffffffffffffffffffff1660808173ffffffffffffffffffffffffffffffffffffffff1660601b815250508060a0818152505050620000ec565b6000815190506200009681620000d2565b92915050565b600060208284031215620000af57600080fd5b6000620000bf8482850162000085565b91505092915050565b6000819050919050565b620000dd81620000c8565b8114620000e957600080fd5b50565b60805160601c60a051611c1962000123600039600081816105fb01526106d20152600081816105d10152610ac40152611c196000f3fe6080604052600436106100865760003560e01c8063bfb231d211610059578063bfb231d21461014f578063ca7dd37514610192578063d0e9c3be146101cf578063d38ea5bf146101f8578063fa00afc71461021457610086565b8063401b21681461008b57806365e17c9d146100ce5780636bfb0d01146100f95780637fd6f15c14610124575b600080fd5b34801561009757600080fd5b506100b260048036038101906100ad919061118b565b61023d565b6040516100c597969594939291906114df565b60405180910390f35b3480156100da57600080fd5b506100e36105cf565b6040516100f0919061148d565b60405180910390f35b34801561010557600080fd5b5061010e6105f3565b60405161011b9190611618565b60405180910390f35b34801561013057600080fd5b506101396105f9565b6040516101469190611618565b60405180910390f35b34801561015b57600080fd5b5061017660048036038101906101719190611331565b61061d565b6040516101899796959493929190611633565b60405180910390f35b34801561019e57600080fd5b506101b960048036038101906101b49190611331565b6106cc565b6040516101c69190611618565b60405180910390f35b3480156101db57600080fd5b506101f660048036038101906101f191906111b4565b61072f565b005b610212600480360381019061020d9190611331565b6108fb565b005b34801561022057600080fd5b5061023b600480360381019061023691906112e2565b610d0c565b005b60036020528060005260406000206000915090508060000160009054906101000a900473ffffffffffffffffffffffffffffffffffffffff169080600101805461028690611932565b80601f01602080910402602001604051908101604052809291908181526020018280546102b290611932565b80156102ff5780601f106102d4576101008083540402835291602001916102ff565b820191906000526020600020905b8154815290600101906020018083116102e257829003601f168201915b50505050509080600201805461031490611932565b80601f016020809104026020016040519081016040528092919081815260200182805461034090611932565b801561038d5780601f106103625761010080835404028352916020019161038d565b820191906000526020600020905b81548152906001019060200180831161037057829003601f168201915b5050505050908060030180546103a290611932565b80601f01602080910402602001604051908101604052809291908181526020018280546103ce90611932565b801561041b5780601f106103f05761010080835404028352916020019161041b565b820191906000526020600020905b8154815290600101906020018083116103fe57829003601f168201915b50505050509080600401805461043090611932565b80601f016020809104026020016040519081016040528092919081815260200182805461045c90611932565b80156104a95780601f1061047e576101008083540402835291602001916104a9565b820191906000526020600020905b81548152906001019060200180831161048c57829003601f168201915b5050505050908060050180546104be90611932565b80601f01602080910402602001604051908101604052809291908181526020018280546104ea90611932565b80156105375780601f1061050c57610100808354040283529160200191610537565b820191906000526020600020905b81548152906001019060200180831161051a57829003601f168201915b50505050509080600601805461054c90611932565b80601f016020809104026020016040519081016040528092919081815260200182805461057890611932565b80156105c55780601f1061059a576101008083540402835291602001916105c5565b820191906000526020600020905b8154815290600101906020018083116105a857829003601f168201915b5050505050905087565b7f000000000000000000000000000000000000000000000000000000000000000081565b60015481565b7f000000000000000000000000000000000000000000000000000000000000000081565b60026020528060005260406000206000915090508060000154908060010160009054906101000a900473ffffffffffffffffffffffffffffffffffffffff16908060020154908060030154908060040160009054906101000a900473ffffffffffffffffffffffffffffffffffffffff16908060050160009054906101000a900473ffffffffffffffffffffffffffffffffffffffff16908060050160149054906101000a900460ff16905087565b600060647f000000000000000000000000000000000000000000000000000000000000000060646106fd919061174b565b600260008581526020019081526020016000206003015461071e91906117d2565b61072891906117a1565b9050919050565b6040518060e001604052808873ffffffffffffffffffffffffffffffffffffffff16815260200187815260200186815260200185815260200184815260200183815260200182815250600360008973ffffffffffffffffffffffffffffffffffffffff1673ffffffffffffffffffffffffffffffffffffffff16815260200190815260200160002060008201518160000160006101000a81548173ffffffffffffffffffffffffffffffffffffffff021916908373ffffffffffffffffffffffffffffffffffffffff160217905550602082015181600101908051906020019061081a929190611041565b506040820151816002019080519060200190610837929190611041565b506060820151816003019080519060200190610854929190611041565b506080820151816004019080519060200190610871929190611041565b5060a082015181600501908051906020019061088e929190611041565b5060c08201518160060190805190602001906108ab929190611041565b509050507f38951133c6d5b140c23f2a743fcd5dced1dda744e8d7e4769f09e6c2f3b22d93878787878787876040516108ea97969594939291906114df565b60405180910390a150505050505050565b60026000541415610941576040517f08c379a0000000000000000000000000000000000000000000000000000000008152600401610938906115f8565b60405180910390fd5b60026000819055506000610954826106cc565b9050600060026000848152602001908152602001600020905060008311801561097f57506001548311155b6109be576040517f08c379a00000000000000000000000000000000000000000000000000000000081526004016109b5906115d8565b60405180910390fd5b81341015610a01576040517f08c379a00000000000000000000000000000000000000000000000000000000081526004016109f8906115b8565b60405180910390fd5b8060050160149054906101000a900460ff1615610a53576040517f08c379a0000000000000000000000000000000000000000000000000000000008152600401610a4a90611578565b60405180910390fd5b8060040160009054906101000a900473ffffffffffffffffffffffffffffffffffffffff1673ffffffffffffffffffffffffffffffffffffffff166108fc82600301549081150290604051600060405180830381858888f19350505050158015610ac1573d6000803e3d6000fd5b507f000000000000000000000000000000000000000000000000000000000000000073ffffffffffffffffffffffffffffffffffffffff166108fc826003015484610b0c919061182c565b9081150290604051600060405180830381858888f19350505050158015610b37573d6000803e3d6000fd5b5060018160050160146101000a81548160ff021916908315150217905550338160050160006101000a81548173ffffffffffffffffffffffffffffffffffffffff021916908373ffffffffffffffffffffffffffffffffffffffff1602179055508060010160009054906101000a900473ffffffffffffffffffffffffffffffffffffffff1673ffffffffffffffffffffffffffffffffffffffff166323b872dd303384600201546040518463ffffffff1660e01b8152600401610bfd939291906114a8565b600060405180830381600087803b158015610c1757600080fd5b505af1158015610c2b573d6000803e3d6000fd5b505050503373ffffffffffffffffffffffffffffffffffffffff168160040160009054906101000a900473ffffffffffffffffffffffffffffffffffffffff1673ffffffffffffffffffffffffffffffffffffffff168260010160009054906101000a900473ffffffffffffffffffffffffffffffffffffffff1673ffffffffffffffffffffffffffffffffffffffff167f8b4c9c8a607d67b321582dd8461041b1dc2ceeca70c8b7f37f8e02095cf2e76d8685600201548660030154604051610cf7939291906116a2565b60405180910390a45050600160008190555050565b60026000541415610d52576040517f08c379a0000000000000000000000000000000000000000000000000000000008152600401610d49906115f8565b60405180910390fd5b600260008190555060008111610d9d576040517f08c379a0000000000000000000000000000000000000000000000000000000008152600401610d9490611598565b60405180910390fd5b60016000815480929190610db090611995565b91905055508273ffffffffffffffffffffffffffffffffffffffff166323b872dd3330856040518463ffffffff1660e01b8152600401610df2939291906114a8565b600060405180830381600087803b158015610e0c57600080fd5b505af1158015610e20573d6000803e3d6000fd5b505050506040518060e0016040528060015481526020018473ffffffffffffffffffffffffffffffffffffffff1681526020018381526020018281526020013373ffffffffffffffffffffffffffffffffffffffff1681526020013373ffffffffffffffffffffffffffffffffffffffff168152602001600015158152506002600060015481526020019081526020016000206000820151816000015560208201518160010160006101000a81548173ffffffffffffffffffffffffffffffffffffffff021916908373ffffffffffffffffffffffffffffffffffffffff160217905550604082015181600201556060820151816003015560808201518160040160006101000a81548173ffffffffffffffffffffffffffffffffffffffff021916908373ffffffffffffffffffffffffffffffffffffffff16021790555060a08201518160050160006101000a81548173ffffffffffffffffffffffffffffffffffffffff021916908373ffffffffffffffffffffffffffffffffffffffff16021790555060c08201518160050160146101000a81548160ff0219169083151502179055509050503373ffffffffffffffffffffffffffffffffffffffff168373ffffffffffffffffffffffffffffffffffffffff167f655a0cf9c8db81512be9a76dc1c5ae5380b8816ce6ad659cd61b715e2999d59a600154858560405161102c939291906116a2565b60405180910390a36001600081905550505050565b82805461104d90611932565b90600052602060002090601f01602090048101928261106f57600085556110b6565b82601f1061108857805160ff19168380011785556110b6565b828001600101855582156110b6579182015b828111156110b557825182559160200191906001019061109a565b5b5090506110c391906110c7565b5090565b5b808211156110e05760008160009055506001016110c8565b5090565b60006110f76110f2846116fe565b6116d9565b90508281526020810184848401111561110f57600080fd5b61111a8482856118f0565b509392505050565b60008135905061113181611b9e565b92915050565b60008135905061114681611bb5565b92915050565b600082601f83011261115d57600080fd5b813561116d8482602086016110e4565b91505092915050565b60008135905061118581611bcc565b92915050565b60006020828403121561119d57600080fd5b60006111ab84828501611122565b91505092915050565b600080600080600080600060e0888a0312156111cf57600080fd5b60006111dd8a828b01611122565b975050602088013567ffffffffffffffff8111156111fa57600080fd5b6112068a828b0161114c565b965050604088013567ffffffffffffffff81111561122357600080fd5b61122f8a828b0161114c565b955050606088013567ffffffffffffffff81111561124c57600080fd5b6112588a828b0161114c565b945050608088013567ffffffffffffffff81111561127557600080fd5b6112818a828b0161114c565b93505060a088013567ffffffffffffffff81111561129e57600080fd5b6112aa8a828b0161114c565b92505060c088013567ffffffffffffffff8111156112c757600080fd5b6112d38a828b0161114c565b91505092959891949750929550565b6000806000606084860312156112f757600080fd5b600061130586828701611137565b935050602061131686828701611176565b925050604061132786828701611176565b9150509250925092565b60006020828403121561134357600080fd5b600061135184828501611176565b91505092915050565b61136381611872565b82525050565b61137281611860565b82525050565b61138181611884565b82525050565b611390816118cc565b82525050565b60006113a18261172f565b6113ab818561173a565b93506113bb8185602086016118ff565b6113c481611a9a565b840191505092915050565b60006113dc60118361173a565b91506113e782611aab565b602082019050919050565b60006113ff601f8361173a565b915061140a82611ad4565b602082019050919050565b600061142260338361173a565b915061142d82611afd565b604082019050919050565b600061144560128361173a565b915061145082611b4c565b602082019050919050565b6000611468601f8361173a565b915061147382611b75565b602082019050919050565b611487816118c2565b82525050565b60006020820190506114a2600083018461135a565b92915050565b60006060820190506114bd6000830186611369565b6114ca6020830185611369565b6114d7604083018461147e565b949350505050565b600060e0820190506114f4600083018a611369565b81810360208301526115068189611396565b9050818103604083015261151a8188611396565b9050818103606083015261152e8187611396565b905081810360808301526115428186611396565b905081810360a08301526115568185611396565b905081810360c083015261156a8184611396565b905098975050505050505050565b60006020820190508181036000830152611591816113cf565b9050919050565b600060208201905081810360008301526115b1816113f2565b9050919050565b600060208201905081810360008301526115d181611415565b9050919050565b600060208201905081810360008301526115f181611438565b9050919050565b600060208201905081810360008301526116118161145b565b9050919050565b600060208201905061162d600083018461147e565b92915050565b600060e082019050611648600083018a61147e565b6116556020830189611387565b611662604083018861147e565b61166f606083018761147e565b61167c608083018661135a565b61168960a0830185611369565b61169660c0830184611378565b98975050505050505050565b60006060820190506116b7600083018661147e565b6116c4602083018561147e565b6116d1604083018461147e565b949350505050565b60006116e36116f4565b90506116ef8282611964565b919050565b6000604051905090565b600067ffffffffffffffff82111561171957611718611a6b565b5b61172282611a9a565b9050602081019050919050565b600081519050919050565b600082825260208201905092915050565b6000611756826118c2565b9150611761836118c2565b9250827fffffffffffffffffffffffffffffffffffffffffffffffffffffffffffffffff03821115611796576117956119de565b5b828201905092915050565b60006117ac826118c2565b91506117b7836118c2565b9250826117c7576117c6611a0d565b5b828204905092915050565b60006117dd826118c2565b91506117e8836118c2565b9250817fffffffffffffffffffffffffffffffffffffffffffffffffffffffffffffffff0483118215151615611821576118206119de565b5b828202905092915050565b6000611837826118c2565b9150611842836118c2565b925082821015611855576118546119de565b5b828203905092915050565b600061186b826118a2565b9050919050565b600061187d826118a2565b9050919050565b60008115159050919050565b600061189b82611860565b9050919050565b600073ffffffffffffffffffffffffffffffffffffffff82169050919050565b6000819050919050565b60006118d7826118de565b9050919050565b60006118e9826118a2565b9050919050565b82818337600083830152505050565b60005b8381101561191d578082015181840152602081019050611902565b8381111561192c576000848401525b50505050565b6000600282049050600182168061194a57607f821691505b6020821081141561195e5761195d611a3c565b5b50919050565b61196d82611a9a565b810181811067ffffffffffffffff8211171561198c5761198b611a6b565b5b80604052505050565b60006119a0826118c2565b91507fffffffffffffffffffffffffffffffffffffffffffffffffffffffffffffffff8214156119d3576119d26119de565b5b600182019050919050565b7f4e487b7100000000000000000000000000000000000000000000000000000000600052601160045260246000fd5b7f4e487b7100000000000000000000000000000000000000000000000000000000600052601260045260246000fd5b7f4e487b7100000000000000000000000000000000000000000000000000000000600052602260045260246000fd5b7f4e487b7100000000000000000000000000000000000000000000000000000000600052604160045260246000fd5b6000601f19601f8301169050919050565b7f6974656d20616c726561647920736f6c64000000000000000000000000000000600082015250565b7f5072696365206d7573742062652067726561746572207468616e207a65726f00600082015250565b7f6e6f7420656e6f75676820657468657220746f20636f766572206974656d207060008201527f7269636520616e64206d61726b65742066656500000000000000000000000000602082015250565b7f6974656d20646f65736e27742065786973740000000000000000000000000000600082015250565b7f5265656e7472616e637947756172643a207265656e7472616e742063616c6c00600082015250565b611ba781611860565b8114611bb257600080fd5b50565b611bbe81611890565b8114611bc957600080fd5b50565b611bd5816118c2565b8114611be057600080fd5b5056fea2646970667358221220335c4965d45660f6dcb49724fe2dddd8727032f2bbd595166c64dbda9c222bea64736f6c63430008040033",
  "linkReferences": {},
  "deployedLinkReferences": {}
}